:020000040800F2
:100000000020002069280008A5140008A714000893
:1000100000000000000000000000000000000000E0
:10002000000000000000000000000000A91400080B
:100030000000000000000000AB140008AD14000830
:10004000B9280008B9280008B9280008B92800080C
:10005000B928000865110008B9280008B928000867
:10006000B9280008B9280008B9280008B9280008EC
:100070001D120008B9280008B9280008B92800088E
:10008000B9280008B928000800000000B9280008B5
:10009000B9280008B9280008B9280008B9280008BC
:1000A000B9280008B9280008B9280008B9280008AC
:1000B000B928000800000000B9280008000000006E
:1000C00010B5064C2378002B07D1054B002B02D02E
:1000D000044800E000BF0123237010BD6000002031
:1000E000000000001C320008044B10B5002B03D0A8
:1000F0000349044800E000BF10BDC04600000000F6
:10010000640000201C32000803B471464908400016
:100110004900095E49008E4403BC70470022430831
:100120008B4274D303098B425FD3030A8B4244D3BF
:10013000030B8B4228D3030C8B420DD3FF22090201
:1001400012BA030C8B4202D31212090265D0030BC0
:100150008B4219D300E0090AC30B8B4201D3CB03B6
:10016000C01A5241830B8B4201D38B03C01A5241F8
:10017000430B8B4201D34B03C01A5241030B8B42FA
:1001800001D30B03C01A5241C30A8B4201D3CB02E5
:10019000C01A5241830A8B4201D38B02C01A5241CA
:1001A000430A8B4201D34B02C01A5241030A8B42CD
:1001B00001D30B02C01A5241CDD2C3098B4201D3E5
:1001C000CB01C01A524183098B4201D38B01C01A63
:1001D000524143098B4201D34B01C01A52410309DA
:1001E0008B4201D30B01C01A5241C3088B4201D389
:1001F000CB00C01A524183088B4201D38B00C01A36
:10020000524143088B4201D34B00C01A5241411A5C
:1002100000D20146524110467047FFE701B5002069
:1002200000F006F802BDC0460029F7D076E7704717
:100230007047C0469E2110B5C905041C00F0B2FCF1
:10024000002803D1201C00F015FC10BD9E21201CAD
:10025000C90500F06FFA00F00DFC80231B069C46D8
:100260006044F2E7F0B54F464646D6464502C0B573
:1002700047000C1C6D0A3F0EC60F002F00D16FE027
:10028000FF2F00D174E00023802299469A46ED00AA
:10029000D20415437F3F63025B0A984663001B0E3E
:1002A000E40F002B4DD0FF2B45D042468021D200D9
:1002B000C9041143884600227F3B3100FF1A4B4698
:1002C0006140C9B20F2B00D9B8E070489B00C358F9
:1002D0009F46002398462600454692465346022BE9
:1002E00000D18DE0032B00D1A1E0012B18D03B0001
:1002F0007F33002B6DDD6A0704D00F222A40042AC9
:1003000000D004352A0103D5614B1D403B008033EA
:10031000FE2B00DD74E0AA01520AD8B202E00E0002
:1003200000200022C005F60710433043E0BCBA4667
:10033000B146A846F0BD4346002B3FD10222FF3F05
:1003400003E04346002B2DD1012231004B46614092
:10035000C9B213430F2B38D84E489B00C3589F4651
:10036000002D13D104239946033B00279A4692E7B8
:10037000002D05D108239946063BFF279A468AE7B8
:100380000C239946093BFF279A4684E7280000F092
:1003900013FC7627431F9D4000237F4299469A46CF
:1003A0003F1A78E7404600F007FC4246431F9A4058
:1003B00076235B4290461B1A00227EE703234A46BF
:1003C0001A439146FC33032277E70E00FF200022F8
:1003D000A8E70122D31A1B2BA2DC9E372A00BD40BE
:1003E000DA406B1E9D4115436A0704D00F222A4054
:1003F000042A00D004356A0144D50120002291E787
:10040000FF2000228EE780220026FF20D20389E70A
:10041000002398468022D203154208D04346134257
:1004200005D11A4352022600FF20520A7AE78022A1
:10043000D2032A435202FF20520A73E742466B015D
:100440005501AB421AD21B200022013F01261C009D
:1004500052005B00002C01DB9D4201D85B1B324344
:1004600001380028F3D1581E834113431D003B007F
:100470007F330E00002B00DD3DE7AAE71A200122A2
:100480005B1BE3E7AA010020520A4BE73432000865
:10049000FFFFFFF77432000843025B0AF0B54F46D6
:1004A00046469946D646C30F45009846C0B54B46CA
:1004B0000F1C2D0E00D1CBE0FF2D00D1CFE080220C
:1004C000DB00D2041A430023914600269A467F3D62
:1004D0007C027B00640A1B0EFF0F002B00D1A9E0F9
:1004E000FF2B11D08022E400D204144342467F3B0C
:1004F0005B197A400020D2B25D1C0A2E13DD3A004F
:100500000B2E47D047463FE02B00FF33002C1ED177
:1005100002221643424601357A40D2B2FF350A2EF6
:1005200000DDE4E00220022E1CDC013E012E42D858
:1005300002283DD0012866D100200021C0050843D3
:10054000D2071043E0BCBA46B146A846F0BD03222C
:100550001643424601357A40D2B2FF350A2E00DDFD
:10056000E4E003200121B140A626F60031420AD181
:100570009026B600314216D1B93EFF3E0E421AD047
:10058000A146824600E0170053463A00022B0FD0E6
:100590004C4650460328CDD18021C903214349024E
:1005A000FF20490ACAE780210022FF20C903C5E7CE
:1005B000FF200021C2E7200C49462404240C270018
:1005C0000E0C0904090C74434F4346434843390C4D
:1005D000001909188C4203D98020400284466644E1
:1005E0003F0408043F0CC0198401671EBC41090C7C
:1005F000800E8919044389010C43090171D5012337
:1006000061081C400C432B007F33002B51DD610738
:1006100004D00F212140042900D00434210103D546
:10062000434B1C402B008033FE2BC1DCA101490A47
:10063000D8B283E7002C2CD1012342461E432B0065
:100640007A400120D2B25D1C0A2E00DD57E76AE72E
:10065000002B10D10123042600259A4638E7002BF1
:1006600004D102230826FF259A4631E703230C26EE
:10067000FF259A462CE7484600F09EFA4A46431F5B
:1006800076259A4000236D42914600269A462D1AFF
:100690001EE7200000F090FA4246431F9C402B1AB0
:1006A000763B7A400020D2B25D1C0A2E00DD26E7A0
:1006B00039E70121CB1A1B2B00DD3DE79E352100D8
:1006C000AC40D940631E9C4121434B0704D00F230B
:1006D0000B40042B00D004314B0104D50120002134
:1006E0002CE71D008FE789010020490A26E7022335
:1006F0000F2E0CD180214B46C9030B420DD00C426A
:100700000BD1214349023A00FF20490A16E70B2E7C
:1007100000D0F7E6A1469A4636E780214B46C9034A
:10072000194349024246FF20490A07E70323DFE74E
:10073000FFFFFFF7F0B5C64643025B0A4500DA004B
:10074000C40F48024F009446420A1E00904600B56E
:100750002D0E3F0EC90F8009FF2F59D001225140A5
:100760008C4239D0EA1B002A58DD002F68D0FF2DBB
:1007700000D1D1E08023DB0418431B2A00DCE3E036
:1007800001236246D31A5A0100D4ACE09B019E09B2
:10079000300000F011FA330005388340854200DC58
:1007A000C6E0B24A2D1A13405A0704D00F221A404D
:1007B000042A00D004335A0100D497E06A1CFE2DAD
:1007C00000D184E09B015E0AD2B2D0053043E40739
:1007D000204380BCB846F0BDEA1B002A41DD002F53
:1007E0006BD0FF2D00D197E08023DB0418431B2A38
:1007F00000DCCCE0012363445A0174D50135FF2DA0
:1008000065D001229A491A405B080B401343CBE79D
:1008100000281FD08C4222D02A00FF3A002A35D06F
:100820007A1B002D00D099E06346002B00D1DDE05B
:10083000531E012A00D105E1FF2A6BD01A0094E073
:10084000002873D0511E012A00D1DFE0FF2A63D0B7
:100850000A0092E701225140A14200D082E72A001B
:10086000FF3A002A36D07A1B002D00D1AAE0FF2FD4
:1008700000D1DAE080236146DB0419438C461B2A51
:1008800000DCD4E001233D001B18B5E7FE276A1CFD
:10089000174271D1002D00D09EE06346002B00D19D
:1008A000D5E00022002800D18FE71B1A5E0100D49A
:1008B000D6E063460C00C31A76E7002836D0511EF6
:1008C000012A00D19AE0FF2A26D00A008FE7FF22F2
:1008D00000267AE7FE276A1C174262D0FF2AF6D06C
:1008E0001500604443085A0700D05FE7DB08FF2D7E
:1008F00012D05B025E0AEAB267E76246002A00D1C4
:1009000093E0002808D08022D203134204D040464E
:10091000104201D10C004346002BD8D08026F603AC
:100920001E437602FF22760A4FE743461500DEE7B4
:100930002022401B0130121A19009340C1405A1E58
:10094000934100250B432FE720239B1A0100984079
:100950000300D1405A1E93410B4312E7FF2FD9D019
:1009600080236446DB041C43A4461B2A52DD01237A
:100970000C003D00C31A06E763461E1A730139D402
:10098000002E00D004E70024002200261DE72023CB
:100990009B1A010098400300D1405A1E93410B431B
:1009A00029E7002DA9D16346002B56D0002200284C
:1009B00000D10AE7030063445A0194D52B4A01355C
:1009C000134090E76346002BAFD0531E012A15D089
:1009D000FF2A2AD01A0052E76246002A91D1002845
:1009E00098D180260024FF22F603EEE60C00434651
:1009F00015007CE763460C00C61AC9E60300634491
:100A000001255A0100D46EE70225FAE66346012566
:100A10001B1AB8E664462023D4409B1A62469A40CB
:100A200013005A1E93412343A2E7434674E76146ED
:100A30002023D1409B1A62469A4013005A1E9341CC
:100A40000B4320E763460C000125C31A9BE60028F0
:100A500099D00C0046460022B7E646460022B4E68E
:100A6000002B00D03FE700240026AEE6FFFFFFFB8F
:100A7000FFFFFF7D41024200C30F490A0020120E12
:100A80007E2A03DD9D2A02DD094A981870478020DE
:100A900000040143952A07DC9620821AD14048427F
:100AA000002BF3D10800F1E7963A9140F7E7C046F2
:100AB000FFFFFF7F70B5041E0ED000F07DF89E236F
:100AC00001001B1A962B0CDC08282CD008398C400E
:100AD0006402640AD8B201E000200024C00520436B
:100AE00070BD992B0ADD020020001B3290400200ED
:100AF000501E82410520401AC4401443052916DCCB
:100B000022000F480240650709D00F252C40042C15
:100B100005D00432540102D59F2302405B1A920192
:100B2000540AD8B2DAE764029620640AD6E74A1F6C
:100B300094402200024802406507F0D0E5E7C04635
:100B4000FFFFFFFB844608006146FFE71FB500F08A
:100B5000BDF8002801D40021C8421FBD10B500F027
:100B600049F84042013010BD10B500F0AFF8002840
:100B700001DB002010BD012010BDC04610B500F003
:100B8000A5F8002801DD002010BD012010BDC046E1
:100B900010B500F055F8002801DC002010BD012040
:100BA00010BDC04610B500F04BF8002801DA002057
:100BB00010BD012010BDC0461C2101231B0498421A
:100BC00001D3000C10391B0A984201D3000A0839DE
:100BD0001B09984201D30009043902A2105C401895
:100BE0007047C04604030202010101010000000039
:100BF0000000000070B5420045024E024C00C30FD9
:100C00006D0A0120120E760A240EC90FFF2A06D0A3
:100C1000FF2C03D0A24201D1B54206D070BD002DF9
:100C2000FCD1FF2CFAD1002EF8D18B4206D0012046
:100C3000002AF3D12800431E9841EFE70020EDE79A
:100C400070B5420045024E024C00C30F6D0A120EF1
:100C5000760A240EC80FFF2A1BD0FF2C0ED0002AC4
:100C60001BD1002C01D1002E1CD0002D0CD08342B2
:100C70001CD00221581E0840013870BD002E22D120
:100C8000002AF4D1002DF2D10028F6D101204042F3
:100C9000F3E7002D17D1FF2CF0D0002CE7D1002E68
:100CA000E5D1E6E70020002DE7D0E2E7A24205DC2F
:100CB000EADBB54202D8E7D30020DEE743425841E1
:100CC00040000138D9E702204042D6E770B5420023
:100CD00045024E024C00C30F6D0A120E760A240E16
:100CE000C80FFF2A0BD0FF2C0DD0002A1FD1002CDB
:100CF00016D1002E14D10020002D10D009E0002DB7
:100D00000CD1FF2C13D1002E08D1002A08D0834229
:100D100012D00221581E0840013800E0022070BDA8
:100D2000002DF4D10028FAD101204042F7E7002C31
:100D3000EDD1002EEBD1ECE7A24205DCF2DBB542AF
:100D400002D8EFD30020EAE743425841400001387F
:100D5000E5E7C046F0B5C64600B58CB00AAD08223E
:100D60000021280001F0CAFD1822002104A801F08A
:100D7000C5FD274B5A698021C9030A435A615A6944
:100D80000A400392039A5A69802189020A435A61F0
:100D90005A690A400292029A5A698021C9020A439A
:100DA0005A615B690B400193019B1A4F802398465F
:100DB000BB62194A93680F218B4393609022D2053E
:100DC000D3680C398B4301242343D36013688B43CE
:100DD00013600A942C7100266E71AC71280000F02B
:100DE00023FC43460493059406960796089604A9A7
:100DF000380000F060FB00220021052000F0C4FF55
:100E0000052000F0F1FF0CB080BCB846F0BDC04634
:100E100000100240000400480000014082B00300BE
:100E20004000C0180023019304E0C046C046019B67
:100E300001330193019B8342F7D302B07047000056
:100E400070B51420FFF7EAFF0A4CA36980252D0234
:100E50002B43A3611420FFF7E1FFA26980231B0647
:100E60001343A3611420FFF7D9FFA3691D43A561B4
:100E700070BDC0460008004810B50400454A91699D
:100E80008023DB010B43936143B2002B46DB9022AE
:100E9000D205916980231B060B439361630645D5F8
:100EA0009022D205916980235B010B439361A306D5
:100EB00044D5394A916980239B000B439361E30633
:100EC00043D5354A916980235B000B439361FFF75B
:100ED000B7FF230740D59022D205916980231B02DA
:100EE0000B43936163073FD59022D205916980231C
:100EF0005B010B439361A3073ED5274A9169802389
:100F00009B000B439361E4073DD5234A91698023FD
:100F10005B000B439361FFF793FF10BD9022D20556
:100F2000916980231B020B439361B7E79022D2059E
:100F3000916980235B050B439361B8E7164A916979
:100F400080239B040B439361B9E7134A9169802383
:100F50005B040B439361BAE79022D2059169802329
:100F60001B060B439361BDE79022D2059169802354
:100F70005B050B439361BEE7074A916980239B049D
:100F80000B439361BFE7044A916980235B040B43E1
:100F90009361C0E7000800480004004870B50500F0
:100FA000002403E0FFF768FF0134E4B2285D002865
:100FB000F8D170BD10B50400474A91698023DB0564
:100FC0000B43936143B2002B49DB9022D205916918
:100FD00080231B060B439361630648D59022D205FC
:100FE000916980235B010B439361A30647D53B4A7C
:100FF000916980239B000B439361E30646D5374AF2
:10100000916980235B000B439361FFF719FF23076E
:1010100043D59022D205916980231B020B43936133
:10102000630742D59022D205916980235B010B436F
:101030009361A30741D5294A916980239B000B4303
:101040009361E40740D5254A916980235B000B43F7
:101050009361FFF7F5FE2248FFF7E0FE10BD9022F6
:10106000D205916980231B020B439361B4E7902260
:10107000D205916980235B050B439361B5E7174A5D
:10108000916980239B040B439361B6E7134A9169EE
:1010900080235B040B439361B7E79022D2059169EB
:1010A00080231B060B439361BAE79022D205916916
:1010B00080235B050B439361BBE7084A916980235A
:1010C0009B040B439361BCE7044A916980235B0452
:1010D0000B439361BDE7C046000800480004004888
:1010E000B80B000010B51B4B5969802292020A43CD
:1010F0005A6159698022D2020A435A615969802291
:1011000012030A435A619022D20511688223DB053B
:101110000B431360104A1168A023DB020B431360DA
:101120000E4A1168A023DB050B4313600C48FFF740
:1011300075FE3320FFF73EFF3220FFF73BFF0C2008
:10114000FFF738FF2820FFF735FF0120FFF732FFB8
:1011500010BDC046001002400004004800080048CE
:101160003075000010B500F047FA104B1860104BB6
:101170001B68C01AFA239B0098420DD30D4B1A68C6
:10118000FA239B009A420BD00A4BFA2292001A6073
:1011900000F032FA064B1860012000F01BFF10BD72
:1011A000044BFA2252001A60F2E7C0468C0000207D
:1011B000180100200000002010B504000448FFF7CB
:1011C0002DFE0120FFF7F6FE2000FFF7E7FE10BD21
:1011D000B80B000070B5084C200000F015FC012190
:1011E000200000F063FC200000F0C4FC050020009B
:1011F00000F03AFC280070BD9000002010B5FFF709
:1012000059FC0449FFF72EF80349FFF745F9FFF7AA
:1012100011F810BD00F07F45007F3B4710B5054C2D
:10122000200000F0A7FC044B1860200000F0A8FC90
:1012300010BDC046900000208800002072B6FEE776
:1012400000B585B00C22002101A801F057FB214810
:10125000214B0360002343608360C360012202616D
:1012600004214161037643768376C376C221FF3140
:10127000C16103629E39FF394354826200F002FB70
:10128000002822D10623019380235B01029380234F
:101290005B0503930F4801A900F0DAFC002816D182
:1012A0000D4A916880231B060B4393600A4B9B6891
:1012B000002BFBDB084A936801210B439360064B2C
:1012C0001B68DB07FBD505B000BDFFF7B7FFFFF7D5
:1012D000B5FFC046900000200024014000B58FB04B
:1012E000102200210AA801F009FB0822002108A809
:1012F00001F004FB1C22002101A801F0FFFA2048A4
:10130000204B03600023436083601F4AC260036177
:10131000836100F0B7FF002828D180235B010A9386
:1013200017480AA901F0CEF8002821D1144800F08E
:10133000D5FF00281ED1002308930993104808A95F
:1013400001F0D0F9002817D1602301930023029304
:10135000039305930A48082201A901F02FF80028F9
:101360000CD1074801F052FA0FB000BDFFF766FF3D
:10137000FFF764FFFFF762FFFFF760FFFFF75EFF15
:10138000D0000020000400407FBB000010B5244ABC
:10139000136801218B431360214B1B68DB07FBD4CF
:1013A000204A136801210B4313601E4B1B689B07E7
:1013B000FBD51C4A1368F8218B4378390B43136023
:1013C000536B7F390B435363164B5B6B9B07FBD50A
:1013D000144B5A6BF8218A4378390A435A635A6886
:1013E00070318A435A605A680F490A405A605A68F5
:1013F00003218A435A600B4B5B680C221A42FAD1D4
:101400000A4801F02BFA032000F0B2F8002805D1B9
:10141000044A536B04218B43536310BDFFF70EFF47
:101420000020024000100240FFF8FFFF00127A0087
:1014300070B500F0C5F8FFF7A9FFFFF78BFCFFF7C9
:10144000FFFEFFF74BFFFFF74DFE1048082101F0AC
:10145000CBF880210E4800F0B3FDFFF7BBFE020081
:101460000C4D28600C490D4C200001F027FA20009B
:10147000FFF7A2FE2868FFF7C1FE044B1B68D86384
:10148000074B186800F0BEF8E3E7C046D000002024
:101490000004004888000020B43200087C000020CE
:1014A00000000020FEE7FEE77047704710B500F02F
:1014B00097F810BD7047F0B5002216E00B699C4606
:1014C000C4682B006B435E00F618F743B4436646CE
:1014D0005E433443C4604C68022C26D04D680468D7
:1014E0003C406B432343036001320C682300D3402C
:1014F0003BD00123934025001D401C42F4D04B6893
:10150000013B012BDAD88F6883682C006C4366009E
:101510003619B3437C43234383600E68CC68436829
:10152000B343744323434360C8E7FF2D0DD84C6990
:10153000A446066A1C006C436C4325012D1BAE4378
:1015400065466C4334430462C8E74C69A446466A66
:101550002D0A2C006C436C436C4325012D1BAE43BC
:1015600065466C4334434462B8E70020F0BD000098
:1015700010B504000F4B1978FA208000FEF7CEFD5D
:1015800001000D4B1868FEF7C9FD00F039FC00287A
:101590000DD1032C01D901200AE0013000222100E5
:1015A000404200F0F1FB054B1C60002000E00120F0
:1015B00010BDC04608000020040000200C000020E0
:1015C00010B5064A136810210B4313600320FFF780
:1015D000CFFF01F0BDF8002010BDC0460020024042
:1015E000034A1168034B1B785B1813607047C046B1
:1015F0001C01002008000020014B18687047C046FD
:101600001C01002070B50400FFF7F6FF0500631C05
:1016100002D0044B1B78E418FFF7EEFF401BA042FA
:10162000FAD370BD0800002010B50300007900282F
:1016300050D01A68002A57D05879012818D00228AB
:1016400020D000280BD001209A79002A4BD0022A02
:101650002CD0032A34D0012A1ED0012043E0234994
:101660004C6894434C601A680C6822430A60EBE7AC
:101670001E490868904308601A68486802434A6037
:101680000020E1E71949086802430A601A684868BF
:1016900002434A600020D7E71C68144AD168A1437E
:1016A000D1601B6891680B4393601CE01C680F4A73
:1016B0009168A14391601B68D1680B43D36012E02D
:1016C00019680A4A9468214391601B68D1680B43EA
:1016D000D36008E01C68054A1168A14311601968CD
:1016E00053688B43536010BD0020FCE700040140A9
:1016F00070B50400026893685B0725D593685B07A3
:1017000006D593689B0703D4936810210B4393601D
:10171000FFF772FF050023689B685B0712D5FFF790
:101720006BFF401B0228F6D923689B685B07F2D544
:10173000A36B10221343A363E36B0F3A1343E363DA
:10174000012002E0002000E0002070BD70B5040020
:101750000268916803230B40012B01D0002070BD6B
:101760001368DB0702D4D3681B0431D591680523C5
:101770000B40012B09D0A36B10221343A363E36B2F
:101780000F3A1343E3630120E9E7936802210B4317
:101790009360236803221A60FFF72EFF0500236879
:1017A0009B68DB0712D5FFF727FF401B0228F6D9FD
:1017B00023689B68DB07F2D5A36B10221343A36356
:1017C000E36B0F3A1343E3630120C8E70020C6E749
:1017D0000020C4E730B583B0040000230193036800
:1017E000996803220A40012A14D09968224A1142BA
:1017F00018D19A6801210A439A60204B1868204941
:10180000FEF78CFC0190019B002B15D0019B013B46
:101810000193F8E71A68D2072BD4DA681204E4D5EA
:10182000002024E0A36B10221343A363E36B0F3A61
:101830001343E36301201AE0FFF7DEFE050023688F
:101840001B68DB0712D4FFF7D7FE401B0228F6D92E
:1018500023681B68DB07F2D4A36B10221343A36336
:10186000E36B0F3A1343E363012000E0002003B071
:1018700030BD0020FBE7C0461700008004000020B8
:1018800040420F0070B5041E00D1B4E0836B002B02
:1018900000D180E0A36BDB0600D5A6E023689A6840
:1018A000042108001040114200D09EE0A26B534971
:1018B0000A400631FF310A43A263996803220A40B5
:1018C000012A6ED0DA6818218A43A1680A43DA60D7
:1018D000226813699B009B0861680B4313612268AF
:1018E000D36847490B40D360237E9B03627ED203BB
:1018F0001343A17E4A031343A26A012A58D08022CF
:1019000052011343E26813432269022A52D003436F
:101910002422A25C52001343E27E012A4CD0E269E9
:10192000C221FF318A4202D0216A0A43134321684F
:10193000CA681A43CA60E26A802149058A420DD00A
:10194000012A0BD0022A09D0032A07D0042A05D085
:10195000052A03D0062A01D0072A0AD12068416946
:1019600007229143416120684169E56A2A400A43A0
:1019700042612268D26823490A409A422BD0A36B65
:1019800012229343023A1343A363E36B0F3A1343C8
:10199000E36301202EE0C3633422835400F0F0FEA1
:1019A00078E71A68D2079AD4DA68120497D489E7DC
:1019B0000200A6E70420AAE7002903D180225202F0
:1019C0001343ACE7A26B20210A43A263E26B1F39E9
:1019D0000A43E263A3E70023E363A36B0322934379
:1019E000023A1343A363002004E0A36B10221343C5
:1019F000A363012070BD0120FCE7C046FDFEFFFF90
:101A00001902FEFFE7FF3F8310B5040003689B68DF
:101A10005B0723D43423C35C012B21D03423012260
:101A2000C254437E012B14D10020A26B0D4B1A40EF
:101A300080235B001343A3630023E3633422A35496
:101A40002368183A1A602268936804210B43936054
:101A500010BDFFF7BFFE0028FAD1E6E70220F7E746
:101A60000220F5E7FEF0FFFF10B504003423C35C4D
:101A7000012B17D034230122C254FFF739FE00286E
:101A800003D034230022E25410BD2000FFF75EFE95
:101A90000028F6D1A36B044A13400432FF321343EB
:101AA000A363EEE70220EFE7FEFEFFFFF8B50400B8
:101AB0000E004769082F04D00368DB68DB0718D4E1
:101AC0000C27FFF799FD050023681A6817421FD1FC
:101AD000731CF9D0002E15D123681B681F42F3D167
:101AE000A36B04221343A36334230022E254032094
:101AF00032E0836B20221343836334230022C254D9
:101B0000012029E0FFF778FD401BB042DCD9E3E774
:101B1000A16B802292000A43A263D968C0221201FD
:101B2000114213D1A27E002A10D11A6812070DD5D6
:101B30009A68520711D45A680C218A435A60A36BE1
:101B40000B4A13400432FF321343A363207E002864
:101B50000CD123680C221A60F8BDA36B202213431A
:101B6000A363E36B1F3A1343E363EFE70020F3E75C
:101B7000FEFEFFFF0368186C7047704770477047A0
:101B800070B5040003681D685E686A0701D57207B6
:101B900003D42A0727D5320725D5A26BD20604D451
:101BA000A16B802292000A43A263D968C02212016D
:101BB000114212D1A27E002A0FD12A070DD59A68B0
:101BC00052072DD45A680C218A435A60A36B1F4ACE
:101BD00013400432FF321343A3632000FFF7CDFF0D
:101BE00023680C221A602B0601D5330621D4ED069A
:101BF00015D5F60613D5A36A012B03D02368DB683D
:101C0000DB0709D5E36B02221343E36323680E323B
:101C10001A602000FFF7B3FF236810221A6070BD1E
:101C2000A36B20221343A363E36B1F3A1343E363C5
:101C3000D3E7A26B80235B021343A3632000FFF76B
:101C40009DFF236880221A60D1E7C046FEFEFFFF99
:101C500030B583B00400002301933433C35C012BFF
:101C600000D180E034230122C254026893685B07EC
:101C70006BD448683D4B98424CD0936A0D68012064
:101C8000A84003439362E36A80225205934213D033
:101C9000013B062B10D988682268556907232B4021
:101CA000984209D0506907239843506120684269DF
:101CB0008D682B40134343610B681A00103A022AC7
:101CC0004DD82B4A1268102B0ED0112B09D080232F
:101CD0005B041343264A13600B68102B07D00020C7
:101CE00038E08023DB03F4E780231B04F1E7214B7A
:101CF00018682149FEF712FA03008000C01840005E
:101D0000019002E0019B013B0193019B002BF9D163
:101D100000201FE0936A0D680120A840834393626E
:101D20000B681A00103A022A1BD8114A1268102BAD
:101D300009D0112B05D0114B13400D4A1360002020
:101D400008E00F4BF8E70F4BF6E7836B20221343B5
:101D50008363012034230022E25403B030BD00200D
:101D6000F8E70020F6E70220F7E7C0460110000080
:101D7000082701400400002040420F00FFFFFFFE43
:101D8000FFFFBFFFFFFF7FFF70B5002811DB830857
:101D9000134DC0339B005C5903221040C000FC323D
:101DA00016008640B44389010A40824022435A51BA
:101DB00070BD0F230340083B9B0806339B00094A74
:101DC000944663445C6803221040C000FC32150056
:101DD0008540AC4389010A40824022435A60E7E7CC
:101DE00000E100E000ED00E0002805DB1F231840C3
:101DF0001E3B8340014A13607047C04600E100E08B
:101E0000013880235B0498420FD2094A5060094888
:101E1000036A1B021B0AC02109060B43036200234D
:101E2000936007331360002070470120FCE7C04631
:101E300010E000E000ED00E0F0B583B0002356E0D4
:101E400086685F000324BC40A643CC68BC40344392
:101E50008460446894434E683609012232409A40B7
:101E60002243426053E0DE080836B6003758053298
:101E70001A4092000F249440A7430C69944022001A
:101E80003A43325056E0032600E00026A6403400D4
:101E90003C4302329200444E9451444A9768EA43CC
:101EA0003E00AE434C68E40201D53E002E433F4C59
:101EB000A660E7683E0016404C68A40201D53E00CB
:101EC0002E433A4CE66067683E0016404C68A40317
:101ED00001D53E002E43354C6660266832404C6882
:101EE000E40301D52A003243304C226001330C68F0
:101EF0002200DA4056D001229A40250015401442B3
:101F0000F4D04E6803243440013C012C98D94C682D
:101F100003222240032A08D0C4685E000322B24094
:101F200094438A68B2402243C2604C680322224034
:101F3000022A98D004685E0003221700B740BC4311
:101F40004F683A40B240224302604C68C02292027D
:101F50001442CBD0164CA66901221643A661A4698F
:101F600022400192019A9A08941CA4000E4EA7598F
:101F700003241C40A4000F26A640B7439026F60574
:101F8000B04282D00B4EB04208D00B4EB04207D0C8
:101F90000A4EB04200D176E7052677E7012675E7BD
:101FA000022673E703B0F0BD0000014000040140C9
:101FB000001002400004004800080048000C0048DF
:101FC000426913000B401B0491430B43836170472C
:101FD0007047000010B5054B5B69184200D110BD79
:101FE000024B5861FFF7F4FFF9E7C04600040140D7
:101FF00030B5036A012293430362056A426883692C
:102000007324A3430C681C4302239D438B682B431A
:10201000154DA84208D0154DA84205D0144DA84230
:1020200002D0144DA84206D10825AB431D00CB6851
:102030002B430425AB430C4DA84208D00B4DA842BE
:1020400005D00B4DA84202D00A4DA84205D10A4D39
:102050002A404D6915438A692A43426084614A686F
:102060004263036230BDC046002C01400040014085
:102070000044014000480140FFFCFFFF30B5036A07
:10208000194A13400362046A4268C3697325AB436B
:102090000D681D43154B1C408B681B022343144CD9
:1020A000A04219D0124CA04208D0124CA04205D038
:1020B000114CA04202D0114CA04207D1104C22403A
:1020C0004C69240114438A69120122434260C561AC
:1020D0004A68C263036230BD0A4C1C40CB681B02D5
:1020E0002343094C2340DDE7FFFEFFFFFFFDFFFF19
:1020F000002C0140004001400044014000480140E4
:10210000FFCFFFFFFFF7FFFFFFFBFFFF30B5036AC5
:10211000134A13400362046A4368C269114D2A409E
:102120000D682D021543104A14408A681203224399
:102130000E4CA04208D00E4CA04205D00D4CA0423F
:1021400002D00D4CA04204D10C4C1C404B699B01A9
:1021500023434360C5614B680364026230BDC046DF
:10216000FFEFFFFFFF8CFFFFFFDFFFFF002C0140B1
:10217000004001400044014000480140FFBFFFFF14
:1021800030B5036A046A0125AC4304628469EF3503
:10219000AC43120122430A24A3430B43826103622E
:1021A00030BD000030B5036A1024A3430362846984
:1021B000036A054D2C4012032243A024A3430901C6
:1021C00019438261016230BDFF0FFFFF83687022F7
:1021D00093430B43693A1343836070477047000091
:1021E0000368214A904206D08022D205904202D054
:1021F0001E4A904203D1702293434A6813431A4AFD
:10220000904212D08022D20590420ED0174A9042BE
:102210000BD0174A904208D0164A904205D0164A71
:10222000904202D0154A904203D1154A1A40CB6819
:102230001343802293434A69134303608B68C3624C
:102240000B688362084B984208D00A4B984205D02D
:10225000094B984202D0094B984201D10B690363A4
:10226000012343617047C046002C01400004004038
:10227000002000400040014000440140004801406F
:10228000FFFCFFFF70B5041E26D03D23C35C002B6E
:102290001CD03D2502236355210001C9FFF7A0FF93
:1022A00001234622A354083AA3540132A354013215
:1022B000A3540132A3540132A3540132A354013276
:1022C000A3540132A3546355002070BD3C33002257
:1022D000C25400F085FADCE70120F6E770B5041E71
:1022E00026D03D23C35C002B1CD03D250223635523
:1022F000210001C9FFF774FF01234622A354083AC5
:10230000A3540132A3540132A3540132A354013225
:10231000A3540132A3540132A3540132A354635590
:10232000002070BD3C330022C254FFF757FFDCE7AA
:102330000120F6E770B5036A102293430362026A34
:1023400044688369174D2B400D682D021D432023DF
:102350009A438B681B011343134A904219D0124AC7
:10236000904208D0114A904205D0114A904202D0C2
:10237000104A904207D1104A14404A699200224301
:102380008C69A4001443446085614A6882630362D7
:1023900070BD802293431E00CB681B013343403A3B
:1023A0009343DCE7FF8CFFFF002C0140004001401D
:1023B0000044014000480140FFF3FFFF70B50400F6
:1023C0000D003C23C35C012B00D16AE03C230121BA
:1023D000C154082A50D01CD8002A38D0042A16D15B
:1023E00000682900FFF7A6FF2268916980231B017E
:1023F0000B439361226893692B490B4093612168D9
:102400008B692A69120213438B6100201BE00800CC
:1024100019E00C2A16D100682900FFF777FE226820
:10242000D16980231B010B43D3612268D3691E4904
:102430000B40D3612168CB692A6912021343CB6137
:10244000002000E001203C230022E25470BD00681F
:102450002900FFF7CDFD2268936908210B439361A2
:102460002268936904398B439361226893692969CF
:102470000B4393610020E6E700682900FFF7FEFDAB
:102480002268D36908210B43D3612268D3690439D8
:102490008B43D3612268D36929690B43D361002040
:1024A000D1E70220D2E7C046FFFBFFFF30B58468CA
:1024B000034D2C401B0213430B432343836030BD69
:1024C000FF00FFFF10B5040008003C23E35C012B74
:1024D00000D177E03C230122E25401330132E2547F
:1024E0002268936838490B409360016860294FD097
:1024F00029D8402957D00CD9502922D14168C26827
:102500002068FFF73DFE20685021FFF75FFE0020A6
:1025100005E020290ED009D930290BD001203D2318
:102520000122E254013B0022E25410BD002901D0F7
:10253000102904D12068FFF749FE0020EFE70120B1
:10254000EDE70120EBE780225201914236D0802254
:10255000920191420DD181684268C3682068FFF7FB
:10256000A5FF226891688023DB010B439360002064
:10257000D5E7702924D181684268C3682068FFF7D5
:1025800095FF2268936877210B4393600020C6E78C
:102590004168C2682068FFF705FE20686021FFF7E8
:1025A00015FE0020BBE74168C2682068FFF7E8FD20
:1025B00020684021FFF70AFE0020B0E70020AEE7C8
:1025C0000120ACE70220B0E78800FFFF10B51F2311
:1025D000194001248C40036AA3430362036A8A40C2
:1025E0001343036210BD000010B50400002936D16A
:1025F0003E23C35C013B5A1E9341DBB2002B62D1E8
:10260000002945D13E330222E25420680122FFF71F
:10261000DDFF23682E4A934208D02E4A934205D00C
:102620002D4A934202D02D4A934204D1596C802204
:1026300012020A435A642368254A934238D0802202
:10264000D205934234D0264A934231D0214A934254
:102650002ED01A6801210A431A60002034E00429B0
:1026600008D008290DD04123C35C013B5A1E934179
:10267000DBB2C3E73F23C35C013B5A1E9341DBB28D
:10268000BCE74023C35C013B5A1E9341DBB2B5E774
:10269000042905D0082907D041230222E254B4E7D7
:1026A0003F230222E254B0E740230222E254ACE787
:1026B000996807220A40062A07D01A6801210A43AE
:1026C0001A60002000E0012010BD0020FCE7C04699
:1026D000002C0140004001400044014000480140FE
:1026E0000004004030B53C23C35C012B28D03C23C0
:1026F0000122C25401330132C25403685C689D68F0
:102700006E3294430A6822435A6003680D4A93422A
:1027100009D08022D205934205D00B4A934202D0C1
:102720000A4A934204D1802295434A682A439A6018
:102730003D230122C254013B0022C254002030BD7F
:102740000220FCE7002C0140000400400040014052
:1027500082B00A4B996901221143996199690A4033
:102760000092009ADA69802149050A43DA61DB693F
:102770000B400193019B02B07047C046001002401D
:1027800010B588B004001422002103A800F0B6F8A8
:102790002268114B9A4201D008B010BD0F4B9A69C4
:1027A000802189000A439A619A690A400192019A3C
:1027B0005A69802189020A435A615B690B4002937E
:1027C000029B402303933D3B0493902003A9C00543
:1027D000FFF732FBE0E7C046002401400010024052
:1027E00082B00268074B9A4201D002B07047064A95
:1027F000D16902231943D161D26913400193019B2E
:10280000F3E7C046000400400010024010B586B057
:1028100004001422002101A800F070F822680C4B7B
:102820009A4201D006B010BD0A4B5A698021C902F4
:102830000A435A615B690B400093009B012301939B
:1028400002220292059301A90348FFF7F5FAE9E78E
:10285000000400400010024000040048014B1860D2
:102860007047C046040000200D488546FEF722FE52
:102870000C480D490D4A002302E0D458C4500433DB
:10288000C4188C42F9D30A4A0A4C002301E01360B1
:102890000432A242FBD300F039F8FEF7C9FDFEE78F
:1028A000002000200000002060000020F43200081A
:1028B000600000206C020020FEE700000EB400B5AE
:1028C0000B499CB01DAB02900690079104910948FA
:1028D000094904CB0591006802A9019300F09CF915
:1028E0000022029B1A701CB008BC03B01847C046F7
:1028F000FFFFFF7F5C0000200802FFFF030082183B
:10290000934200D1704719700133F9E770B5002682
:102910000C4C0D4D641BA410A64209D1002600F0FA
:102920007DFC0A4C0A4D641BA410A64205D170BD63
:10293000B300EB5898470136EEE7B300EB589847E1
:102940000136F2E7EC320008EC320008F032000801
:10295000EC3200087047704770B50500002910D0B0
:102960000C1F2368002B00DAE418280000F0E2F8BE
:102970001D4A1368002B05D163601460280000F025
:10298000E1F870BDA34208D9206821188B42F3D129
:1029900019685B6809182160EEE71A005B68002B74
:1029A00001D0A342F9D911685018A0420BD1206878
:1029B0000918501811608342E0D118685B6841180B
:1029C00011605360DAE7A04202D90C232B60D5E7EF
:1029D000206821188B4203D119685B6809182160AF
:1029E00063605460CAE7C0466002002070B50F4EB5
:1029F0000D0031680400002902D100F0A1FB306015
:102A00002900200000F09CFB431C0AD00323C51CB6
:102A10009D43A84207D0291A200000F091FB013005
:102A200001D101256D42280070BDC046640200201E
:102A3000F7B50322CB1C9343083306001F000C2B71
:102A400038D20C27B94237D8300000F073F8384B31
:102A500000931B681C00002C33D139003000FFF7B5
:102A6000C5FF0400431C5ED1009B1C682500002D9F
:102A70004ED1002C51D023682900E3183000019377
:102A800000F05EFB019B834247D123683000FF1AB0
:102A90003900FFF7ABFF01303FD02368DB1923601B
:102AA000009B1B68002B40D05A68A24233D1002201
:102AB0005A6014E0002BC5DA0C230025336028008F
:102AC000FEBD2168C91B20D40B2918D9E219276043
:102AD000A34212D1009B1A606368116053603000FA
:102AE000250000F02FF807220B35231D9543EA1A25
:102AF0009D42E4D05B1BA350E1E75A60ECE76268BB
:102B0000A342D5D1009B1A60E9E723006468A2E7DD
:102B10002C006D68ABE71300C4E70C233000336072
:102B200000F010F8CBE72760D9E75B60FFDEC04616
:102B30006002002010B50248FFF70CFF10BDC04630
:102B40005C02002010B50248FFF705FF10BDC0462B
:102B50005C020020F0B585B0019303928E68019A63
:102B600007000C000B68964231D88A899021C90071
:102B70000A4229D0032021695B1A02936369434307
:102B8000DD0FED18019B029801331B186D10AB424D
:102B900000D91D00520529D529003800FFF748FF4C
:102BA000061E2DD0029A216900F0E7FAA289194B7E
:102BB0001A4080231343A381029B2661F6182660E6
:102BC0006561019EED1AA560019B9E4200D9019EA0
:102BD00032000399206800F09FFA0020A3689B1B35
:102BE000A36023689B19236005B0F0BD2A0038005C
:102BF00000F0CCFA061EDFD138002169FFF7ACFEE9
:102C00000C2301203B60A28934331343A38140424B
:102C1000EAE7C0467FFBFFFFF0B5A1B003901D00BF
:102C20008B890F0016001B0611D50B69002B0ED1E6
:102C30004021FFF7FDFE38603861002805D10C23E4
:102C4000039A0138136021B0F0BD40237B6100235B
:102C500008AC6361203363761033A37607953500A3
:102C60002B78002B01D0252B48D1AB1B0593B54207
:102C70000BD0320039000398FFF76CFF013000D110
:102C8000AFE06369059A9B1863612B78002B00D134
:102C9000A7E0012200235242626004A95432521874
:102CA0006E1C2360E360A3601370A365554B05227F
:102CB00018003178059300F055FA751C00281FD1D3
:102CC0002268D30604D5532304A95B182021197068
:102CD000130704D5532304A95B182B2119703378EB
:102CE0002A2B16D0350000210A20E3682A786E1CB2
:102CF000303A092A4ED9002911D117E00135AFE742
:102D0000059B2268C01A0123834013432E002360D1
:102D1000CCE7079B191D1B680791002B01DB0B9368
:102D200004E05B42E3600223134323602B782E2BE5
:102D30000AD16B782A2B35D1079B02351A1D1B68E7
:102D40000792002B2BDB09932F4E032230002978AA
:102D500000F008FA002806D04023801B8340226838
:102D60000135134323602978062228486E1C2176FA
:102D700000F0F8F900283CD0254B002B25D1072284
:102D8000079B07339343083307936369049A9B189F
:102D9000636164E74343350001219B18A6E70123E3
:102DA0005B42D0E700230A201A00013563602978CE
:102DB0006E1C3039092903D9002BC5D00992C3E70D
:102DC0004243350001235218F1E707AA009221007F
:102DD0003A00104B039800E000BF0490049B0133BD
:102DE000D3D1BB890D985B0600D42CE7012040426B
:102DF00029E707AA009221003A00064B039800F049
:102E00007BF8EAE7B8320008BE320008C232000898
:102E100000000000552B0008F7B5160001938A68E2
:102E20000B690C000090934200DA1300220033601B
:102E300043321278002A01D00133336023689B06A5
:102E400002D53368023333602268062315001D4023
:102E50001A4227D0230043331B785A1E934122681D
:102E6000920630D4220001990098089D4332A84769
:102E7000013025D00622236800251340042B05D1FC
:102E80003368E568ED1AEB43DB171D40A368226940
:102E9000934201DD9B1AED180026B54220D1002097
:102EA00010E00135E36832689B1AAB42D2DD2200A4
:102EB000012301990098089F1932B8470130F0D1D9
:102EC00001204042FEBD3020E1184331087021004E
:102ED0005A1C45310978A218433202331170C1E7F8
:102EE0002200012301990098089F1A32B847013047
:102EF000E6D00136D1E70000F0B58BB006920A00AB
:102F000043320793059004920A7E0C00109B782AA6
:102F100009D8622A0BD8002A00D1BEE07C4903916F
:102F2000582A00D193E026004236327022E0100089
:102F300063381528F7D8FDF7E7F816001F00F6FFED
:102F4000F6FFF6FFF6FF1F00F6FFF6FFF6FFF6FFAF
:102F5000A30036008300F6FFF6FFB400F6FF36004C
:102F6000F6FFF6FF870026001A684236111D196029
:102F7000136833700123A2E018680968021D0D066A
:102F80000BD505681A60002D03DA2D23049A6D42D3
:102F900013705F4B0A2703931BE005681A6049060C
:102FA000F1D52DB2EFE70D681968081D18602E06DF
:102FB00001D50D6803E06D06FBD50D68ADB2544B2D
:102FC000082703936F2A00D00237230000224333DF
:102FD0001A706368A360002B03DB042122688A4314
:102FE0002260002D02D1049E002B0CD0049E2800EC
:102FF0003900FDF719F9039B013E5B5C33702B0030
:1030000005009F42F3D9082F09D12368DB0706D5B5
:10301000626823699A4202DC3023013E3370049BCC
:103020009B1B2361079B210000930598069B09AA1F
:10303000FFF7F2FE013047D1012040420BB0F0BD56
:10304000202209680A432260782232490391210034
:1030500045310A701968226820C9100602D450064A
:1030600000D5ADB21960D30702D5202313432360E6
:103070001027002DA9D12022236893432360A4E7C1
:103080001A680D68101D4969186013682E0601D56D
:10309000196002E06D06FBD519800023049E2361B0
:1030A000C0E71A68111D19601668002130006268B7
:1030B00000F058F8002801D0801B6060636823612D
:1030C0000023049A1370ADE732002369069905982E
:1030D000079DA8470130AFD023689B0715D4099BF3
:1030E000E0689842AADA1800A8E7220001230699AE
:1030F0000598079E1932B04701309DD00135E3682D
:10310000099A9B1AAB42F0DCE9E70025F7E7C046D5
:10311000C9320008DA32000810B5884202D98B188B
:10312000984203D3002307E08B5C8354013AFBD21F
:1031300010BDCC5CC45401339A42FAD1F8E70000C8
:10314000002370B5064D040008002B6000F056F80F
:10315000431C03D12B68002B00D0236070BDC046F8
:1031600058020020C9B28218904201D10020704755
:1031700003788B42FBD00130F6E7002310B59A426A
:1031800000D110BDCC5CC4540133F8E7F7B507009B
:103190000E001400002905D11100FFF749FC0500BD
:1031A0002800FEBD002A03D1FFF7D6FB2500F7E774
:1031B00000F01BF80190844203D835004308A34275
:1031C000EED321003800FFF733FC051EE8D0019B49
:1031D00022009C4200D91A0031002800FFF7CDFFE1
:1031E00031003800FFF7B8FBDAE70B1F1B68181F28
:1031F000002B01DA0B58C01870470000054A030085
:103200001168002901D1044911601068C3181360C6
:103210007047C0466802002070020020F8B5C04622
:10322000F8BC08BC9E467047F8B5C046F8BC08BC60
:043230009E467047FF
:103234003C040008CA0300081E030008D602000864
:103244001E030008060400081E030008D602000836
:10325400CA030008CA03000806040008D6020008CE
:10326400DC020008DC020008DC0200081404000888
:10327400CA030008CA0300081E030008D20200089B
:103284001E030008060400081E030008D2020008FA
:10329400CA030008CA03000806040008D202000892
:1032A400DC020008DC020008DC020008100400084C
:1032B400256C7500232D302B2000686C4C0065664E
:1032C4006745464700303132333435363738394173
:1032D4004243444546003031323334353637383989
:0832E40061626364656600008D
:0432EC00E9000008ED
:0432F000C100000811
:1032F400F401000000127A00010000000400000044
:10330400000000002001002088010020F0010020BE
:1033140000000000000000000000000000000000A9
:103324000000000000000000000000000000000099
:103334000000000000000000000000000000000089
:103344000000000000000000000000001000002049
:04000005080028695E
:00000001FF
